{
  "_format": "hh-sol-artifact-1",
  "contractName": "randomString",
  "sourceName": "contracts/randomString.sol",
  "abi": [
    {
      "inputs": [],
      "stateMutability": "nonpayable",
      "type": "constructor"
    },
    {
      "anonymous": false,
      "inputs": [
        {
          "indexed": true,
          "internalType": "address",
          "name": "owner",
          "type": "address"
        },
        {
          "indexed": true,
          "internalType": "address",
          "name": "approved",
          "type": "address"
        },
        {
          "indexed": true,
          "internalType": "uint256",
          "name": "tokenId",
          "type": "uint256"
        }
      ],
      "name": "Approval",
      "type": "event"
    },
    {
      "anonymous": false,
      "inputs": [
        {
          "indexed": true,
          "internalType": "address",
          "name": "owner",
          "type": "address"
        },
        {
          "indexed": true,
          "internalType": "address",
          "name": "operator",
          "type": "address"
        },
        {
          "indexed": false,
          "internalType": "bool",
          "name": "approved",
          "type": "bool"
        }
      ],
      "name": "ApprovalForAll",
      "type": "event"
    },
    {
      "anonymous": false,
      "inputs": [
        {
          "indexed": false,
          "internalType": "address",
          "name": "sender",
          "type": "address"
        },
        {
          "indexed": false,
          "internalType": "uint256",
          "name": "tokenId",
          "type": "uint256"
        }
      ],
      "name": "RandomStringMinted",
      "type": "event"
    },
    {
      "anonymous": false,
      "inputs": [
        {
          "indexed": true,
          "internalType": "address",
          "name": "from",
          "type": "address"
        },
        {
          "indexed": true,
          "internalType": "address",
          "name": "to",
          "type": "address"
        },
        {
          "indexed": true,
          "internalType": "uint256",
          "name": "tokenId",
          "type": "uint256"
        }
      ],
      "name": "Transfer",
      "type": "event"
    },
    {
      "inputs": [],
      "name": "TOTAL_SUPPLY",
      "outputs": [
        {
          "internalType": "uint256",
          "name": "",
          "type": "uint256"
        }
      ],
      "stateMutability": "view",
      "type": "function"
    },
    {
      "inputs": [
        {
          "internalType": "address",
          "name": "to",
          "type": "address"
        },
        {
          "internalType": "uint256",
          "name": "tokenId",
          "type": "uint256"
        }
      ],
      "name": "approve",
      "outputs": [],
      "stateMutability": "nonpayable",
      "type": "function"
    },
    {
      "inputs": [
        {
          "internalType": "address",
          "name": "owner",
          "type": "address"
        }
      ],
      "name": "balanceOf",
      "outputs": [
        {
          "internalType": "uint256",
          "name": "",
          "type": "uint256"
        }
      ],
      "stateMutability": "view",
      "type": "function"
    },
    {
      "inputs": [
        {
          "internalType": "uint256",
          "name": "tokenId",
          "type": "uint256"
        }
      ],
      "name": "getApproved",
      "outputs": [
        {
          "internalType": "address",
          "name": "",
          "type": "address"
        }
      ],
      "stateMutability": "view",
      "type": "function"
    },
    {
      "inputs": [],
      "name": "getTotalMinted",
      "outputs": [
        {
          "internalType": "uint256",
          "name": "",
          "type": "uint256"
        }
      ],
      "stateMutability": "view",
      "type": "function"
    },
    {
      "inputs": [
        {
          "internalType": "address",
          "name": "owner",
          "type": "address"
        },
        {
          "internalType": "address",
          "name": "operator",
          "type": "address"
        }
      ],
      "name": "isApprovedForAll",
      "outputs": [
        {
          "internalType": "bool",
          "name": "",
          "type": "bool"
        }
      ],
      "stateMutability": "view",
      "type": "function"
    },
    {
      "inputs": [],
      "name": "makeARandomString",
      "outputs": [],
      "stateMutability": "nonpayable",
      "type": "function"
    },
    {
      "inputs": [],
      "name": "name",
      "outputs": [
        {
          "internalType": "string",
          "name": "",
          "type": "string"
        }
      ],
      "stateMutability": "view",
      "type": "function"
    },
    {
      "inputs": [
        {
          "internalType": "uint256",
          "name": "tokenId",
          "type": "uint256"
        }
      ],
      "name": "ownerOf",
      "outputs": [
        {
          "internalType": "address",
          "name": "",
          "type": "address"
        }
      ],
      "stateMutability": "view",
      "type": "function"
    },
    {
      "inputs": [
        {
          "internalType": "uint256",
          "name": "tokenId",
          "type": "uint256"
        }
      ],
      "name": "pickRandomFirstWord",
      "outputs": [
        {
          "internalType": "string",
          "name": "",
          "type": "string"
        }
      ],
      "stateMutability": "view",
      "type": "function"
    },
    {
      "inputs": [
        {
          "internalType": "uint256",
          "name": "tokenId",
          "type": "uint256"
        }
      ],
      "name": "pickRandomSecondWord",
      "outputs": [
        {
          "internalType": "string",
          "name": "",
          "type": "string"
        }
      ],
      "stateMutability": "view",
      "type": "function"
    },
    {
      "inputs": [
        {
          "internalType": "uint256",
          "name": "tokenId",
          "type": "uint256"
        }
      ],
      "name": "pickRandomThirdWord",
      "outputs": [
        {
          "internalType": "string",
          "name": "",
          "type": "string"
        }
      ],
      "stateMutability": "view",
      "type": "function"
    },
    {
      "inputs": [
        {
          "internalType": "address",
          "name": "from",
          "type": "address"
        },
        {
          "internalType": "address",
          "name": "to",
          "type": "address"
        },
        {
          "internalType": "uint256",
          "name": "tokenId",
          "type": "uint256"
        }
      ],
      "name": "safeTransferFrom",
      "outputs": [],
      "stateMutability": "nonpayable",
      "type": "function"
    },
    {
      "inputs": [
        {
          "internalType": "address",
          "name": "from",
          "type": "address"
        },
        {
          "internalType": "address",
          "name": "to",
          "type": "address"
        },
        {
          "internalType": "uint256",
          "name": "tokenId",
          "type": "uint256"
        },
        {
          "internalType": "bytes",
          "name": "_data",
          "type": "bytes"
        }
      ],
      "name": "safeTransferFrom",
      "outputs": [],
      "stateMutability": "nonpayable",
      "type": "function"
    },
    {
      "inputs": [
        {
          "internalType": "address",
          "name": "operator",
          "type": "address"
        },
        {
          "internalType": "bool",
          "name": "approved",
          "type": "bool"
        }
      ],
      "name": "setApprovalForAll",
      "outputs": [],
      "stateMutability": "nonpayable",
      "type": "function"
    },
    {
      "inputs": [
        {
          "internalType": "bytes4",
          "name": "interfaceId",
          "type": "bytes4"
        }
      ],
      "name": "supportsInterface",
      "outputs": [
        {
          "internalType": "bool",
          "name": "",
          "type": "bool"
        }
      ],
      "stateMutability": "view",
      "type": "function"
    },
    {
      "inputs": [],
      "name": "symbol",
      "outputs": [
        {
          "internalType": "string",
          "name": "",
          "type": "string"
        }
      ],
      "stateMutability": "view",
      "type": "function"
    },
    {
      "inputs": [
        {
          "internalType": "uint256",
          "name": "tokenId",
          "type": "uint256"
        }
      ],
      "name": "tokenURI",
      "outputs": [
        {
          "internalType": "string",
          "name": "",
          "type": "string"
        }
      ],
      "stateMutability": "view",
      "type": "function"
    },
    {
      "inputs": [
        {
          "internalType": "address",
          "name": "from",
          "type": "address"
        },
        {
          "internalType": "address",
          "name": "to",
          "type": "address"
        },
        {
          "internalType": "uint256",
          "name": "tokenId",
          "type": "uint256"
        }
      ],
      "name": "transferFrom",
      "outputs": [],
      "stateMutability": "nonpayable",
      "type": "function"
    }
  ],
  "bytecode": "0x608060405260405180610160016040528061012f815260200162003e8e61012f9139600890805190602001906200003892919062000567565b506040518060c001604052806040518060400160405280600581526020017f437269707900000000000000000000000000000000000000000000000000000081525081526020016040518060400160405280600781526020017f5361746f7368690000000000000000000000000000000000000000000000000081525081526020016040518060400160405280600381526020017f4b6964000000000000000000000000000000000000000000000000000000000081525081526020016040518060400160405280600381526020017f576562000000000000000000000000000000000000000000000000000000000081525081526020016040518060400160405280600281526020017f554900000000000000000000000000000000000000000000000000000000000081525081526020016040518060400160405280600381526020017f55736200000000000000000000000000000000000000000000000000000000008152508152506009906006620001b6929190620005f8565b506040518060c001604052806040518060400160405280600681526020017f426f74746c65000000000000000000000000000000000000000000000000000081525081526020016040518060400160405280600381526020017f526564000000000000000000000000000000000000000000000000000000000081525081526020016040518060400160405280600581526020017f436f75636800000000000000000000000000000000000000000000000000000081525081526020016040518060400160405280600681526020017f48656c6d6574000000000000000000000000000000000000000000000000000081525081526020016040518060400160405280600681526020017f426f74746c65000000000000000000000000000000000000000000000000000081525081526020016040518060400160405280600581526020017f436c6f7564000000000000000000000000000000000000000000000000000000815250815250600a90600662000334929190620005f8565b506040518060c001604052806040518060400160405280600481526020017f426c75650000000000000000000000000000000000000000000000000000000081525081526020016040518060400160405280600581526020017f436c6f776e00000000000000000000000000000000000000000000000000000081525081526020016040518060400160405280600681526020017f537175617265000000000000000000000000000000000000000000000000000081525081526020016040518060400160405280600681526020017f52616e736f6d000000000000000000000000000000000000000000000000000081525081526020016040518060400160405280600381526020017f4c6564000000000000000000000000000000000000000000000000000000000081525081526020016040518060400160405280600681526020017f5363726970740000000000000000000000000000000000000000000000000000815250815250600b906006620004b2929190620005f8565b50348015620004c057600080fd5b506040518060400160405280600f81526020017f52616e646f6d537472696e6773414600000000000000000000000000000000008152506040518060400160405280600481526020017f524441460000000000000000000000000000000000000000000000000000000081525081600090805190602001906200054592919062000567565b5080600190805190602001906200055e92919062000567565b50505062000751565b8280546200057590620006ec565b90600052602060002090601f016020900481019282620005995760008555620005e5565b82601f10620005b457805160ff1916838001178555620005e5565b82800160010185558215620005e5579182015b82811115620005e4578251825591602001919060010190620005c7565b5b509050620005f491906200065f565b5090565b8280548282559060005260206000209081019282156200064c579160200282015b828111156200064b5782518290805190602001906200063a92919062000567565b509160200191906001019062000619565b5b5090506200065b91906200067e565b5090565b5b808211156200067a57600081600090555060010162000660565b5090565b5b80821115620006a25760008181620006989190620006a6565b506001016200067f565b5090565b508054620006b490620006ec565b6000825580601f10620006c85750620006e9565b601f016020900490600052602060002090810190620006e891906200065f565b5b50565b600060028204905060018216806200070557607f821691505b602082108114156200071c576200071b62000722565b5b50919050565b7f4e487b7100000000000000000000000000000000000000000000000000000000600052602260045260246000fd5b61372d80620007616000396000f3fe608060405234801561001057600080fd5b50600436106101215760003560e01c80636352211e116100ad578063b187301f11610071578063b187301f14610308578063b88d4fde14610338578063c575757a14610354578063c87b56dd14610384578063e985e9c5146103b457610121565b80636352211e1461025057806370a0823114610280578063902d55a5146102b057806395d89b41146102ce578063a22cb465146102ec57610121565b80630ca1c5c9116100f45780630ca1c5c9146101c057806323b872dd146101de5780632de38d68146101fa57806342842e0e1461022a5780635e3043411461024657610121565b806301ffc9a71461012657806306fdde0314610156578063081812fc14610174578063095ea7b3146101a4575b600080fd5b610140600480360381019061013b919061235e565b6103e4565b60405161014d9190612fe6565b60405180910390f35b61015e6104c6565b60405161016b9190613001565b60405180910390f35b61018e600480360381019061018991906123b0565b610558565b60405161019b9190612f56565b60405180910390f35b6101be60048036038101906101b99190612322565b6105dd565b005b6101c86106f5565b6040516101d59190613243565b60405180910390f35b6101f860048036038101906101f3919061221c565b610706565b005b610214600480360381019061020f91906123b0565b610766565b6040516102219190613001565b60405180910390f35b610244600480360381019061023f919061221c565b610884565b005b61024e6108a4565b005b61026a600480360381019061026591906123b0565b610a26565b6040516102779190612f56565b60405180910390f35b61029a600480360381019061029591906121b7565b610ad8565b6040516102a79190613243565b60405180910390f35b6102b8610b90565b6040516102c59190613243565b60405180910390f35b6102d6610b95565b6040516102e39190613001565b60405180910390f35b610306600480360381019061030191906122e6565b610c27565b005b610322600480360381019061031d91906123b0565b610da8565b60405161032f9190613001565b60405180910390f35b610352600480360381019061034d919061226b565b610ec6565b005b61036e600480360381019061036991906123b0565b610f28565b60405161037b9190613001565b60405180910390f35b61039e600480360381019061039991906123b0565b611046565b6040516103ab9190613001565b60405180910390f35b6103ce60048036038101906103c991906121e0565b611198565b6040516103db9190612fe6565b60405180910390f35b60007f80ac58cd000000000000000000000000000000000000000000000000000000007bffffffffffffffffffffffffffffffffffffffffffffffffffffffff1916827bffffffffffffffffffffffffffffffffffffffffffffffffffffffff191614806104af57507f5b5e139f000000000000000000000000000000000000000000000000000000007bffffffffffffffffffffffffffffffffffffffffffffffffffffffff1916827bffffffffffffffffffffffffffffffffffffffffffffffffffffffff1916145b806104bf57506104be8261122c565b5b9050919050565b6060600080546104d5906134e2565b80601f0160208091040260200160405190810160405280929190818152602001828054610501906134e2565b801561054e5780601f106105235761010080835404028352916020019161054e565b820191906000526020600020905b81548152906001019060200180831161053157829003601f168201915b5050505050905090565b600061056382611296565b6105a2576040517f08c379a0000000000000000000000000000000000000000000000000000000008152600401610599906131a3565b60405180910390fd5b6004600083815260200190815260200160002060009054906101000a900473ffffffffffffffffffffffffffffffffffffffff169050919050565b60006105e882610a26565b90508073ffffffffffffffffffffffffffffffffffffffff168373ffffffffffffffffffffffffffffffffffffffff161415610659576040517f08c379a000000000000000000000000000000000000000000000000000000000815260040161065090613203565b60405180910390fd5b8073ffffffffffffffffffffffffffffffffffffffff16610678611302565b73ffffffffffffffffffffffffffffffffffffffff1614806106a757506106a6816106a1611302565b611198565b5b6106e6576040517f08c379a00000000000000000000000000000000000000000000000000000000081526004016106dd906130e3565b60405180910390fd5b6106f0838361130a565b505050565b600061070160076113c3565b905090565b610717610711611302565b826113d1565b610756576040517f08c379a000000000000000000000000000000000000000000000000000000000815260040161074d90613223565b60405180910390fd5b6107618383836114af565b505050565b6060600061079a6107768461170b565b6040516020016107869190612f12565b6040516020818303038152906040526118b8565b9050600980549050816107ad919061355d565b9050600981815481106107e9577f4e487b7100000000000000000000000000000000000000000000000000000000600052603260045260246000fd5b9060005260206000200180546107fe906134e2565b80601f016020809104026020016040519081016040528092919081815260200182805461082a906134e2565b80156108775780601f1061084c57610100808354040283529160200191610877565b820191906000526020600020905b81548152906001019060200180831161085a57829003601f168201915b5050505050915050919050565b61089f83838360405180602001604052806000815250610ec6565b505050565b60006108b060076113c3565b9050603281106108f5576040517f08c379a00000000000000000000000000000000000000000000000000000000081526004016108ec90613023565b60405180910390fd5b600061090082610766565b9050600061090d83610da8565b9050600061091a84610f28565b9050600083838360405160200161093393929190612e29565b6040516020818303038152906040529050600060088260405160200161095a929190612e5a565b6040516020818303038152906040529050600061099f8361097a846118eb565b60405160200161098b929190612ecd565b6040516020818303038152906040526118eb565b90506000816040516020016109b49190612f34565b60405160208183030381529060405290506109cf3389611aa9565b6109d98882611ac7565b6109e36007611b3b565b7f03bc0b43e55260eecb894205d1749b56e2e11a516e6d34365415e6b8d389cc1c3389604051610a14929190612fbd565b60405180910390a15050505050505050565b6000806002600084815260200190815260200160002060009054906101000a900473ffffffffffffffffffffffffffffffffffffffff169050600073ffffffffffffffffffffffffffffffffffffffff168173ffffffffffffffffffffffffffffffffffffffff161415610acf576040517f08c379a0000000000000000000000000000000000000000000000000000000008152600401610ac690613123565b60405180910390fd5b80915050919050565b60008073ffffffffffffffffffffffffffffffffffffffff168273ffffffffffffffffffffffffffffffffffffffff161415610b49576040517f08c379a0000000000000000000000000000000000000000000000000000000008152600401610b4090613103565b60405180910390fd5b600360008373ffffffffffffffffffffffffffffffffffffffff1673ffffffffffffffffffffffffffffffffffffffff168152602001908152602001600020549050919050565b603281565b606060018054610ba4906134e2565b80601f0160208091040260200160405190810160405280929190818152602001828054610bd0906134e2565b8015610c1d5780601f10610bf257610100808354040283529160200191610c1d565b820191906000526020600020905b815481529060010190602001808311610c0057829003601f168201915b5050505050905090565b610c2f611302565b73ffffffffffffffffffffffffffffffffffffffff168273ffffffffffffffffffffffffffffffffffffffff161415610c9d576040517f08c379a0000000000000000000000000000000000000000000000000000000008152600401610c94906130a3565b60405180910390fd5b8060056000610caa611302565b73ffffffffffffffffffffffffffffffffffffffff1673ffffffffffffffffffffffffffffffffffffffff16815260200190815260200160002060008473ffffffffffffffffffffffffffffffffffffffff1673ffffffffffffffffffffffffffffffffffffffff16815260200190815260200160002060006101000a81548160ff0219169083151502179055508173ffffffffffffffffffffffffffffffffffffffff16610d57611302565b73ffffffffffffffffffffffffffffffffffffffff167f17307eab39ab6107e8899845ad3d59bd9653f200f220920489ca2b5937696c3183604051610d9c9190612fe6565b60405180910390a35050565b60606000610ddc610db88461170b565b604051602001610dc89190612eab565b6040516020818303038152906040526118b8565b9050600a8054905081610def919061355d565b9050600a8181548110610e2b577f4e487b7100000000000000000000000000000000000000000000000000000000600052603260045260246000fd5b906000526020600020018054610e40906134e2565b80601f0160208091040260200160405190810160405280929190818152602001828054610e6c906134e2565b8015610eb95780601f10610e8e57610100808354040283529160200191610eb9565b820191906000526020600020905b815481529060010190602001808311610e9c57829003601f168201915b5050505050915050919050565b610ed7610ed1611302565b836113d1565b610f16576040517f08c379a0000000000000000000000000000000000000000000000000000000008152600401610f0d90613223565b60405180910390fd5b610f2284848484611b51565b50505050565b60606000610f5c610f388461170b565b604051602001610f489190612e89565b6040516020818303038152906040526118b8565b9050600b8054905081610f6f919061355d565b9050600b8181548110610fab577f4e487b7100000000000000000000000000000000000000000000000000000000600052603260045260246000fd5b906000526020600020018054610fc0906134e2565b80601f0160208091040260200160405190810160405280929190818152602001828054610fec906134e2565b80156110395780601f1061100e57610100808354040283529160200191611039565b820191906000526020600020905b81548152906001019060200180831161101c57829003601f168201915b5050505050915050919050565b606061105182611296565b611090576040517f08c379a000000000000000000000000000000000000000000000000000000000815260040161108790613183565b60405180910390fd5b60006006600084815260200190815260200160002080546110b0906134e2565b80601f01602080910402602001604051908101604052809291908181526020018280546110dc906134e2565b80156111295780601f106110fe57610100808354040283529160200191611129565b820191906000526020600020905b81548152906001019060200180831161110c57829003601f168201915b50505050509050600061113a611bad565b9050600081511415611150578192505050611193565b60008251111561118557808260405160200161116d929190612e05565b60405160208183030381529060405292505050611193565b61118e84611bc4565b925050505b919050565b6000600560008473ffffffffffffffffffffffffffffffffffffffff1673ffffffffffffffffffffffffffffffffffffffff16815260200190815260200160002060008373ffffffffffffffffffffffffffffffffffffffff1673ffffffffffffffffffffffffffffffffffffffff16815260200190815260200160002060009054906101000a900460ff16905092915050565b60007f01ffc9a7000000000000000000000000000000000000000000000000000000007bffffffffffffffffffffffffffffffffffffffffffffffffffffffff1916827bffffffffffffffffffffffffffffffffffffffffffffffffffffffff1916149050919050565b60008073ffffffffffffffffffffffffffffffffffffffff166002600084815260200190815260200160002060009054906101000a900473ffffffffffffffffffffffffffffffffffffffff1673ffffffffffffffffffffffffffffffffffffffff1614159050919050565b600033905090565b816004600083815260200190815260200160002060006101000a81548173ffffffffffffffffffffffffffffffffffffffff021916908373ffffffffffffffffffffffffffffffffffffffff160217905550808273ffffffffffffffffffffffffffffffffffffffff1661137d83610a26565b73ffffffffffffffffffffffffffffffffffffffff167f8c5be1e5ebec7d5bd14f71427d1e84f3dd0314c0f7b2291e5b200ac8c7c3b92560405160405180910390a45050565b600081600001549050919050565b60006113dc82611296565b61141b576040517f08c379a0000000000000000000000000000000000000000000000000000000008152600401611412906130c3565b60405180910390fd5b600061142683610a26565b90508073ffffffffffffffffffffffffffffffffffffffff168473ffffffffffffffffffffffffffffffffffffffff16148061149557508373ffffffffffffffffffffffffffffffffffffffff1661147d84610558565b73ffffffffffffffffffffffffffffffffffffffff16145b806114a657506114a58185611198565b5b91505092915050565b8273ffffffffffffffffffffffffffffffffffffffff166114cf82610a26565b73ffffffffffffffffffffffffffffffffffffffff1614611525576040517f08c379a000000000000000000000000000000000000000000000000000000000815260040161151c906131c3565b60405180910390fd5b600073ffffffffffffffffffffffffffffffffffffffff168273ffffffffffffffffffffffffffffffffffffffff161415611595576040517f08c379a000000000000000000000000000000000000000000000000000000000815260040161158c90613083565b60405180910390fd5b6115a0838383611c6b565b6115ab60008261130a565b6001600360008573ffffffffffffffffffffffffffffffffffffffff1673ffffffffffffffffffffffffffffffffffffffff16815260200190815260200160002060008282546115fb91906133f8565b925050819055506001600360008473ffffffffffffffffffffffffffffffffffffffff1673ffffffffffffffffffffffffffffffffffffffff16815260200190815260200160002060008282546116529190613317565b92505081905550816002600083815260200190815260200160002060006101000a81548173ffffffffffffffffffffffffffffffffffffffff021916908373ffffffffffffffffffffffffffffffffffffffff160217905550808273ffffffffffffffffffffffffffffffffffffffff168473ffffffffffffffffffffffffffffffffffffffff167fddf252ad1be2c89b69c2b068fc378daa952ba7f163c4a11628f55a4df523b3ef60405160405180910390a4505050565b60606000821415611753576040518060400160405280600181526020017f300000000000000000000000000000000000000000000000000000000000000081525090506118b3565b600082905060005b6000821461178557808061176e90613514565b915050600a8261177e919061336d565b915061175b565b60008167ffffffffffffffff8111156117c7577f4e487b7100000000000000000000000000000000000000000000000000000000600052604160045260246000fd5b6040519080825280601f01601f1916602001820160405280156117f95781602001600182028036833780820191505090505b5090505b600085146118ac5760018261181291906133f8565b9150600a85611821919061355d565b603061182d9190613317565b60f81b818381518110611869577f4e487b7100000000000000000000000000000000000000000000000000000000600052603260045260246000fd5b60200101907effffffffffffffffffffffffffffffffffffffffffffffffffffffffffffff1916908160001a905350600a856118a5919061336d565b94506117fd565b8093505050505b919050565b6000816040516020016118cb9190612dee565b6040516020818303038152906040528051906020012060001c9050919050565b606060008251905060008114156119145760405180602001604052806000815250915050611aa4565b600060036002836119259190613317565b61192f919061336d565b600461193b919061339e565b9050600060208261194c9190613317565b67ffffffffffffffff81111561198b577f4e487b7100000000000000000000000000000000000000000000000000000000600052604160045260246000fd5b6040519080825280601f01601f1916602001820160405280156119bd5781602001600182028036833780820191505090505b50905060006040518060600160405280604081526020016136b8604091399050600181016020830160005b86811015611a615760038101905062ffffff818a015116603f8160121c168401518060081b905060ff603f83600c1c1686015116810190508060081b905060ff603f8360061c1686015116810190508060081b905060ff603f831686015116810190508060e01b905080845260048401935050506119e8565b506003860660018114611a7b5760028114611a8b57611a96565b613d3d60f01b6002830352611a96565b603d60f81b60018303525b508484525050819450505050505b919050565b611ac3828260405180602001604052806000815250611c70565b5050565b611ad082611296565b611b0f576040517f08c379a0000000000000000000000000000000000000000000000000000000008152600401611b0690613143565b60405180910390fd5b80600660008481526020019081526020016000209080519060200190611b36929190612043565b505050565b6001816000016000828254019250508190555050565b611b5c8484846114af565b611b6884848484611ccb565b611ba7576040517f08c379a0000000000000000000000000000000000000000000000000000000008152600401611b9e90613043565b60405180910390fd5b50505050565b606060405180602001604052806000815250905090565b6060611bcf82611296565b611c0e576040517f08c379a0000000000000000000000000000000000000000000000000000000008152600401611c05906131e3565b60405180910390fd5b6000611c18611bad565b90506000815111611c385760405180602001604052806000815250611c63565b80611c428461170b565b604051602001611c53929190612e05565b6040516020818303038152906040525b915050919050565b505050565b611c7a8383611e62565b611c876000848484611ccb565b611cc6576040517f08c379a0000000000000000000000000000000000000000000000000000000008152600401611cbd90613043565b60405180910390fd5b505050565b6000611cec8473ffffffffffffffffffffffffffffffffffffffff16612030565b15611e55578373ffffffffffffffffffffffffffffffffffffffff1663150b7a02611d15611302565b8786866040518563ffffffff1660e01b8152600401611d379493929190612f71565b602060405180830381600087803b158015611d5157600080fd5b505af1925050508015611d8257506040513d601f19601f82011682018060405250810190611d7f9190612387565b60015b611e05573d8060008114611db2576040519150601f19603f3d011682016040523d82523d6000602084013e611db7565b606091505b50600081511415611dfd576040517f08c379a0000000000000000000000000000000000000000000000000000000008152600401611df490613043565b60405180910390fd5b805181602001fd5b63150b7a0260e01b7bffffffffffffffffffffffffffffffffffffffffffffffffffffffff1916817bffffffffffffffffffffffffffffffffffffffffffffffffffffffff191614915050611e5a565b600190505b949350505050565b600073ffffffffffffffffffffffffffffffffffffffff168273ffffffffffffffffffffffffffffffffffffffff161415611ed2576040517f08c379a0000000000000000000000000000000000000000000000000000000008152600401611ec990613163565b60405180910390fd5b611edb81611296565b15611f1b576040517f08c379a0000000000000000000000000000000000000000000000000000000008152600401611f1290613063565b60405180910390fd5b611f2760008383611c6b565b6001600360008473ffffffffffffffffffffffffffffffffffffffff1673ffffffffffffffffffffffffffffffffffffffff1681526020019081526020016000206000828254611f779190613317565b92505081905550816002600083815260200190815260200160002060006101000a81548173ffffffffffffffffffffffffffffffffffffffff021916908373ffffffffffffffffffffffffffffffffffffffff160217905550808273ffffffffffffffffffffffffffffffffffffffff16600073ffffffffffffffffffffffffffffffffffffffff167fddf252ad1be2c89b69c2b068fc378daa952ba7f163c4a11628f55a4df523b3ef60405160405180910390a45050565b600080823b905060008111915050919050565b82805461204f906134e2565b90600052602060002090601f01602090048101928261207157600085556120b8565b82601f1061208a57805160ff19168380011785556120b8565b828001600101855582156120b8579182015b828111156120b757825182559160200191906001019061209c565b5b5090506120c591906120c9565b5090565b5b808211156120e25760008160009055506001016120ca565b5090565b60006120f96120f48461328f565b61325e565b90508281526020810184848401111561211157600080fd5b61211c8482856134a0565b509392505050565b6000813590506121338161365b565b92915050565b60008135905061214881613672565b92915050565b60008135905061215d81613689565b92915050565b60008151905061217281613689565b92915050565b600082601f83011261218957600080fd5b81356121998482602086016120e6565b91505092915050565b6000813590506121b1816136a0565b92915050565b6000602082840312156121c957600080fd5b60006121d784828501612124565b91505092915050565b600080604083850312156121f357600080fd5b600061220185828601612124565b925050602061221285828601612124565b9150509250929050565b60008060006060848603121561223157600080fd5b600061223f86828701612124565b935050602061225086828701612124565b9250506040612261868287016121a2565b9150509250925092565b6000806000806080858703121561228157600080fd5b600061228f87828801612124565b94505060206122a087828801612124565b93505060406122b1878288016121a2565b925050606085013567ffffffffffffffff8111156122ce57600080fd5b6122da87828801612178565b91505092959194509250565b600080604083850312156122f957600080fd5b600061230785828601612124565b925050602061231885828601612139565b9150509250929050565b6000806040838503121561233557600080fd5b600061234385828601612124565b9250506020612354858286016121a2565b9150509250929050565b60006020828403121561237057600080fd5b600061237e8482850161214e565b91505092915050565b60006020828403121561239957600080fd5b60006123a784828501612163565b91505092915050565b6000602082840312156123c257600080fd5b60006123d0848285016121a2565b91505092915050565b6123e28161342c565b82525050565b6123f18161343e565b82525050565b6000612402826132d4565b61240c81856132ea565b935061241c8185602086016134af565b6124258161364a565b840191505092915050565b600061243b826132df565b61244581856132fb565b93506124558185602086016134af565b61245e8161364a565b840191505092915050565b6000612474826132df565b61247e818561330c565b935061248e8185602086016134af565b80840191505092915050565b600081546124a7816134e2565b6124b1818661330c565b945060018216600081146124cc57600181146124dd57612510565b60ff19831686528186019350612510565b6124e6856132bf565b60005b83811015612508578154818901526001820191506020810190506124e9565b838801955050505b50505092915050565b60006125266025836132fb565b91507f416c6c20617661696c61626c65206974656d732068617665206265656e206d6960008301527f6e746564210000000000000000000000000000000000000000000000000000006020830152604082019050919050565b600061258c6032836132fb565b91507f4552433732313a207472616e7366657220746f206e6f6e20455243373231526560008301527f63656976657220696d706c656d656e74657200000000000000000000000000006020830152604082019050919050565b60006125f2601c836132fb565b91507f4552433732313a20746f6b656e20616c7265616479206d696e746564000000006000830152602082019050919050565b6000612632600a8361330c565b91507f54484952445f574f5244000000000000000000000000000000000000000000006000830152600a82019050919050565b60006126726024836132fb565b91507f4552433732313a207472616e7366657220746f20746865207a65726f2061646460008301527f72657373000000000000000000000000000000000000000000000000000000006020830152604082019050919050565b60006126d86019836132fb565b91507f4552433732313a20617070726f766520746f2063616c6c6572000000000000006000830152602082019050919050565b6000612718600b8361330c565b91507f5345434f4e445f574f52440000000000000000000000000000000000000000006000830152600b82019050919050565b6000612758602c836132fb565b91507f4552433732313a206f70657261746f7220717565727920666f72206e6f6e657860008301527f697374656e7420746f6b656e00000000000000000000000000000000000000006020830152604082019050919050565b60006127be600d8361330c565b91507f3c2f746578743e3c2f7376673e000000000000000000000000000000000000006000830152600d82019050919050565b60006127fe6038836132fb565b91507f4552433732313a20617070726f76652063616c6c6572206973206e6f74206f7760008301527f6e6572206e6f7220617070726f76656420666f7220616c6c00000000000000006020830152604082019050919050565b600061286460658361330c565b91507f222c20226465736372697074696f6e223a202252616e646f6d20537472696e6760008301527f73206f6e207468652052696e6b6562792074657374206e6574776f726b20222c60208301527f2022696d616765223a2022646174613a696d6167652f7376672b786d6c3b626160408301527f736536342c0000000000000000000000000000000000000000000000000000006060830152606582019050919050565b6000612916602a836132fb565b91507f4552433732313a2062616c616e636520717565727920666f7220746865207a6560008301527f726f2061646472657373000000000000000000000000000000000000000000006020830152604082019050919050565b600061297c6029836132fb565b91507f4552433732313a206f776e657220717565727920666f72206e6f6e657869737460008301527f656e7420746f6b656e00000000000000000000000000000000000000000000006020830152604082019050919050565b60006129e2602e836132fb565b91507f45524337323155524953746f726167653a2055524920736574206f66206e6f6e60008301527f6578697374656e7420746f6b656e0000000000000000000000000000000000006020830152604082019050919050565b6000612a4860028361330c565b91507f227d0000000000000000000000000000000000000000000000000000000000006000830152600282019050919050565b6000612a886020836132fb565b91507f4552433732313a206d696e7420746f20746865207a65726f20616464726573736000830152602082019050919050565b6000612ac86031836132fb565b91507f45524337323155524953746f726167653a2055524920717565727920666f722060008301527f6e6f6e6578697374656e7420746f6b656e0000000000000000000000000000006020830152604082019050919050565b6000612b2e602c836132fb565b91507f4552433732313a20617070726f76656420717565727920666f72206e6f6e657860008301527f697374656e7420746f6b656e00000000000000000000000000000000000000006020830152604082019050919050565b6000612b946029836132fb565b91507f4552433732313a207472616e73666572206f6620746f6b656e2074686174206960008301527f73206e6f74206f776e00000000000000000000000000000000000000000000006020830152604082019050919050565b6000612bfa602f836132fb565b91507f4552433732314d657461646174613a2055524920717565727920666f72206e6f60008301527f6e6578697374656e7420746f6b656e00000000000000000000000000000000006020830152604082019050919050565b6000612c60600a8361330c565b91507f7b226e616d65223a2022000000000000000000000000000000000000000000006000830152600a82019050919050565b6000612ca06021836132fb565b91507f4552433732313a20617070726f76616c20746f2063757272656e74206f776e6560008301527f72000000000000000000000000000000000000000000000000000000000000006020830152604082019050919050565b6000612d06600a8361330c565b91507f46495253545f574f5244000000000000000000000000000000000000000000006000830152600a82019050919050565b6000612d46601d8361330c565b91507f646174613a6170706c69636174696f6e2f6a736f6e3b6261736536342c0000006000830152601d82019050919050565b6000612d866031836132fb565b91507f4552433732313a207472616e736665722063616c6c6572206973206e6f74206f60008301527f776e6572206e6f7220617070726f7665640000000000000000000000000000006020830152604082019050919050565b612de881613496565b82525050565b6000612dfa8284612469565b915081905092915050565b6000612e118285612469565b9150612e1d8284612469565b91508190509392505050565b6000612e358286612469565b9150612e418285612469565b9150612e4d8284612469565b9150819050949350505050565b6000612e66828561249a565b9150612e728284612469565b9150612e7d826127b1565b91508190509392505050565b6000612e9482612625565b9150612ea08284612469565b915081905092915050565b6000612eb68261270b565b9150612ec28284612469565b915081905092915050565b6000612ed882612c53565b9150612ee48285612469565b9150612eef82612857565b9150612efb8284612469565b9150612f0682612a3b565b91508190509392505050565b6000612f1d82612cf9565b9150612f298284612469565b915081905092915050565b6000612f3f82612d39565b9150612f4b8284612469565b915081905092915050565b6000602082019050612f6b60008301846123d9565b92915050565b6000608082019050612f8660008301876123d9565b612f9360208301866123d9565b612fa06040830185612ddf565b8181036060830152612fb281846123f7565b905095945050505050565b6000604082019050612fd260008301856123d9565b612fdf6020830184612ddf565b9392505050565b6000602082019050612ffb60008301846123e8565b92915050565b6000602082019050818103600083015261301b8184612430565b905092915050565b6000602082019050818103600083015261303c81612519565b9050919050565b6000602082019050818103600083015261305c8161257f565b9050919050565b6000602082019050818103600083015261307c816125e5565b9050919050565b6000602082019050818103600083015261309c81612665565b9050919050565b600060208201905081810360008301526130bc816126cb565b9050919050565b600060208201905081810360008301526130dc8161274b565b9050919050565b600060208201905081810360008301526130fc816127f1565b9050919050565b6000602082019050818103600083015261311c81612909565b9050919050565b6000602082019050818103600083015261313c8161296f565b9050919050565b6000602082019050818103600083015261315c816129d5565b9050919050565b6000602082019050818103600083015261317c81612a7b565b9050919050565b6000602082019050818103600083015261319c81612abb565b9050919050565b600060208201905081810360008301526131bc81612b21565b9050919050565b600060208201905081810360008301526131dc81612b87565b9050919050565b600060208201905081810360008301526131fc81612bed565b9050919050565b6000602082019050818103600083015261321c81612c93565b9050919050565b6000602082019050818103600083015261323c81612d79565b9050919050565b60006020820190506132586000830184612ddf565b92915050565b6000604051905081810181811067ffffffffffffffff821117156132855761328461361b565b5b8060405250919050565b600067ffffffffffffffff8211156132aa576132a961361b565b5b601f19601f8301169050602081019050919050565b60008190508160005260206000209050919050565b600081519050919050565b600081519050919050565b600082825260208201905092915050565b600082825260208201905092915050565b600081905092915050565b600061332282613496565b915061332d83613496565b9250827fffffffffffffffffffffffffffffffffffffffffffffffffffffffffffffffff038211156133625761336161358e565b5b828201905092915050565b600061337882613496565b915061338383613496565b925082613393576133926135bd565b5b828204905092915050565b60006133a982613496565b91506133b483613496565b9250817fffffffffffffffffffffffffffffffffffffffffffffffffffffffffffffffff04831182151516156133ed576133ec61358e565b5b828202905092915050565b600061340382613496565b915061340e83613496565b9250828210156134215761342061358e565b5b828203905092915050565b600061343782613476565b9050919050565b60008115159050919050565b60007fffffffff0000000000000000000000000000000000000000000000000000000082169050919050565b600073ffffffffffffffffffffffffffffffffffffffff82169050919050565b6000819050919050565b82818337600083830152505050565b60005b838110156134cd5780820151818401526020810190506134b2565b838111156134dc576000848401525b50505050565b600060028204905060018216806134fa57607f821691505b6020821081141561350e5761350d6135ec565b5b50919050565b600061351f82613496565b91507fffffffffffffffffffffffffffffffffffffffffffffffffffffffffffffffff8214156135525761355161358e565b5b600182019050919050565b600061356882613496565b915061357383613496565b925082613583576135826135bd565b5b828206905092915050565b7f4e487b7100000000000000000000000000000000000000000000000000000000600052601160045260246000fd5b7f4e487b7100000000000000000000000000000000000000000000000000000000600052601260045260246000fd5b7f4e487b7100000000000000000000000000000000000000000000000000000000600052602260045260246000fd5b7f4e487b7100000000000000000000000000000000000000000000000000000000600052604160045260246000fd5b6000601f19601f8301169050919050565b6136648161342c565b811461366f57600080fd5b50565b61367b8161343e565b811461368657600080fd5b50565b6136928161344a565b811461369d57600080fd5b50565b6136a981613496565b81146136b457600080fd5b5056fe4142434445464748494a4b4c4d4e4f505152535455565758595a6162636465666768696a6b6c6d6e6f707172737475767778797a303132333435363738392b2fa264697066735822122079cebbba3f74c687793f64f9fb8f23e84e2fb2eab130662fc1bf72fe8e39a39b64736f6c634300080000333c73766720786d6c6e733d27687474703a2f2f7777772e77332e6f72672f323030302f73766727207072657365727665417370656374526174696f3d27784d696e594d696e206d656574272076696577426f783d273020302033353020333530273e3c7374796c653e2e62617365207b2066696c6c3a2077686974653b20666f6e742d66616d696c793a2073657269663b20666f6e742d73697a653a20323470783b207d3c2f7374796c653e3c726563742077696474683d273130302527206865696768743d2731303025272066696c6c3d27626c61636b27202f3e3c7465787420783d273530252720793d273530252720636c6173733d27626173652720646f6d696e616e742d626173656c696e653d276d6964646c652720746578742d616e63686f723d276d6964646c65273e",
  "linkReferences": {},
  "deployedLinkReferences": {}
}